:100000000C94CC010C9481030C94E9010C94E9014B
:100010000C94E9010C94E9010C94E9010C94E901B8
:100020000C94E9010C94E9010C94E9010C94E901A8
:100030000C94E9010C94E9010C94E9010C94E90198
:100040000C94E9010C94E9010C94E9010C94E90188
:100050000C94E90109022200010100803209040028
:1000600000010300000009210101000122690007CD
:1000700005810308000A1201100100000008401C5D
:100080002505010101020001120347004C00430055
:10009000440032005500530042003C0377007700D3
:1000A00077002E0068006100720062006100750038
:1000B0006D002E006F00720067002F007400690051
:1000C0006C006C002F0067006C006300640032005D
:1000D000750073006200040309040600FF0901A112
:1000E00001150026FF007508850195250900B2025B
:1000F00001850295010900B20201850395010900FD
:10010000B20201850495010900B202018508950734
:100110000900B202018509950B0900B20201850AA6
:1001200095130900B20201850B95230900B2020163
:10013000850C95430900B20201850D95830900B233
:100140000201C00153454431353230000000000047
:10015000000000000000000000000000000000009F
:10016000000000007A002000122A2A2A20474C436F
:100170004432555342202A2A2A0044726976657215
:100180003A53454431353230205625642E253032DD
:1001900078001147000000000000005F0000000729
:1001A000000700147F147F14242A7F2A12231308C7
:1001B000646236495522500005030000001C2241AC
:1001C000000041221C00082A1C2A0808083E0808D2
:1001D0000050300000080808080800606000002097
:1001E000100804023E5149453E00427F40004261F2
:1001F0005149462141454B311814127F102745457E
:1002000045393C4A49493001710905033649494994
:1002100036064949291E00363600000056360000D1
:10022000000814224114141414144122140800026A
:1002300001510906324979413E7E1111117E7F49F3
:100240004949363E414141227F4141221C7F494973
:1002500049417F090901013E414151327F080808A7
:100260007F00417F41002040413F017F081422412F
:100270007F404040407F0204027F7F0408107F3EA1
:100280004141413E7F090909063E4151215E7F09F6
:10029000192946464949493101017F01013F404042
:1002A000403F1F2040201F7F2018207F6314081428
:1002B000630304780403615149454300007F4141D1
:1002C000020408102041417F0000040201020440A2
:1002D00040404040000102040020545454787F48BC
:1002E0004444383844444420384444487F385454C3
:1002F0005418087E090102081454543C7F08040471
:100300007800447D40002040443D00007F10284498
:1003100000417F40007C041804787C08040478388D
:10032000444444387C14141408081414187C7C08C1
:100330000404084854545420043F4440203C4040A6
:10034000207C1C2040201C3C4030403C442810288D
:10035000440C5050503C4464544C44000836410016
:1003600000007F0000004136080008082A1C080829
:100370001C2A08080B3E41414141424242423C0096
:1003800006FFFFFFFFFFFF30313233343536373899
:10039000394142434445460011241FBECFE5D4E015
:1003A000DEBFCDBF10E0A0E6B0E0E6E4F1E202C0BF
:1003B00005900D92AC36B107D9F711E0ACE6B0E08C
:1003C00001C01D92AB39B107E1F70E94110F0C94E7
:1003D000A1100C940000CF93C62F20916B0124FF35
:1003E00019C020916C0138E8232720936C012C2F31
:1003F000FC01ADE6B1E081918D9321501216DCF342
:100400006C2F8DE691E00E947D03CC5FC0936B0161
:10041000CF9108952AE520936B01E9CFCF93DF9325
:1004200060917C01635067FD13C080917901CCE03D
:10043000D0E0C81BD109C058DE4F809178018D32C1
:1004400009F458C080916C0087FD9DC010927C011A
:100450008091600084FF41C0609161006F3F09F4AA
:100460003CC0693008F470C06850609361008091AE
:10047000600198E889278093600168E080916C00B2
:1004800087FD1DC040917A0150917B0186FF72C0AB
:10049000FA01862FA1E6B1E094919D9331968150A7
:1004A000D9F7262F215030E02F5F3F4F240F351F03
:1004B00030937B0120937A01C62FCC5F50C081E638
:1004C00091E00E940005682F893008F4B3C08FEFD7
:1004D00080936100CEE1C093600094E180B38474A6
:1004E00031F49150D9F710927D0110927701DF918C
:1004F000CF910895683009F0A9CF83EC8093600113
:100500008AE58093600010926C008881807609F003
:1005100045C09A8110926901898181114AC0109267
:100520006A0129E631E082E030937B0120937A0171
:100530008F3FC1F19F81911104C09E81981708F4EB
:10054000892F8093610082CF1092610080916001B9
:1005500098E8892780936001611190CFC4E081E61B
:1005600091E00E947D03CC3009F4B5CF8FEF8093EA
:100570006100B1CFDA01862FE1E6F1E09D91919320
:100580008150E1F78ECFCE010E949F058F3F09F188
:10059000882309F45BCF1092610058CFCE010E94EE
:1005A000B304C6CF988197FD18C090E890936C0073
:1005B000C8CF8530A1F0863069F18830E1F089300C
:1005C000A1F08A3019F18B30D1F029E631E080E0DA
:1005D000ABCF8EE18093600039CF8E81E6CF9093D0
:1005E0007D0129E631E080E09FCF90937F0129E6ED
:1005F00031E080E099CF2FE731E081E095CF8BE4C7
:1006000080936C0129E631E080E08ECF29E631E06D
:1006100081E08ACF8B81813091F1823041F183304A
:10062000E1F0813291F0823241F080E090E49093E9
:100630006C007ECFC82FCC5F92CF8AED90E0909374
:100640007B0180937A0189E6F1CF86E690E0909372
:100650007B0180937A0189E0E9CF911118C086ED82
:1006600090E090937B0180937A0184E0DFCF84E572
:1006700090E090937B0180937A0182E2D7CF86E766
:1006800090E090937B0180937A0182E1CFCF91300B
:1006900051F0923051F688E890E090937B0180937E
:1006A0007A0182E1C3CF8AE990E090937B01809345
:1006B0007A018CE3BBCF85B7836085BF8BB780643D
:1006C0008BBF8BE480936C018AE580936B01089566
:1006D000A82FB92F80E090E041E050EA609530E02B
:1006E00009C02D9182279795879510F0842795272B
:1006F000305EC8F36F5FA8F30895EADF8D939D9392
:100700000895CF93CFB7CF93DF93C395869BE9F737
:10071000869B0BC0869B09C0869B07C0869B05C035
:10072000869B03C0869B01C08BC06F93C0917901EB
:10073000DD27C058DE4F2F9365E5869B03C02F91C0
:100740006F91E6CF0F931F934F9320E040E15F93AB
:1007500000B3047406FB27F93F9350E03BE039C037
:10076000147440642F77012F5F5F1EC0406810B380
:1007700014742F7752501FC0406400B32F77047455
:10078000D1F15F5F00C023C0406210B32F771474B3
:1007900091F15F5F00C025C004741027515012F41E
:1007A0005D5F0000115027952C3F10B3C8F61474FC
:1007B0000127015027952C3FC8F64227499300B3E3
:1007C000047410274F73115027952C3FA8F64695B7
:1007D000469510B3147479F00127015027952C3FEA
:1007E00098F66B5A60F3315000B3B0F600C010E4D5
:1007F0001ABF002719C03B503195C31BD04010E4ED
:100800001ABF0881033C09F10B34F9F020917701FC
:100810001981110F1213EDCF4A81441F093651F18E
:100820000D3211F0013E29F700937E013F915F9157
:100830004F911F910F912F916F91CAB7C6FD65CF50
:10084000DF91CF91CFBFCF91189520917E012223C8
:1008500069F310917C01112391F5343092F13093BA
:100860007C0120937801109179013BE0311B30939A
:10087000790127C000917C0101300CF50AE54F7029
:1008800049F43091600034FD1DC000936000C0E663
:10089000D1E01CC030916B0134FD14C000936B019A
:1008A000CCE6D1E013C0052710E000C0000002BB79
:1008B0001AC0052710E0221F1DC010E021C04AE524
:1008C00002C032ED432FC4E1D0E032E011B3146432
:1008D000969A02B311BB54E420E865E320FF052794
:1008E00002BB279517951C3FF0F66695B8F7B1F750
:1008F00020FF052702BB279517951C3FD0F62795AB
:10090000179517FF052700001C3F02BBB0F6299181
:100910003A9519F70B7B10917D01110FC651D0400C
:1009200002BB11F01093770110E41ABF006411B3F9
:100930001B7B402F4B7B54E05A95F1F702BB11BB58
:1009400042BB74CF80919A0196B390959F7090931B
:100950009A01089586B380958F7090919A01982B93
:1009600090939A0108952DE630E030937B01209317
:100970007A01FC0120812076203211F080E0089578
:1009800021812130B9F02930C9F723812330B1F713
:100990008281843039F120F18850863078F788E000
:1009A000809396018FEF9FEF90939801809397012A
:1009B0008FEF0895FC012381233001F7828181307C
:1009C000A9F08330D9F680936D0090919A0186B397
:1009D00080958F7080939A0190936E0082E00895C5
:1009E000823061F6809396018FEF089546E250E0E1
:1009F00063E471E08DE690E00E94471086E208957E
:100A0000862F0895809393000895CF92DF92EF92FE
:100A1000FF920F931F93CF93DF9360E080E10E94DA
:100A2000010789E691E09F938F93C1E0CF930E94E5
:100A3000820B61E080E00E9401071F92CF931F921A
:100A4000CF938AE791E09F938F93CF930E94820B7D
:100A50008FEF9FEF9093AD008093AC009093B9001F
:100A60008093B8009093C5008093C4009093D10008
:100A70008093D00000ED10E0C4E9D0E08DB79EB7C0
:100A80000A960FB6F8949EBF0FBE8DBF8AE7C82E98
:100A9000D12C93E0E92EF12C0E943710B6010E9470
:100AA000800FF80180839183888F998F0E9437107F
:100AB0008F71907897FD3EC0F801828393838A8F6F
:100AC0009B8F0E943710B7010E94800F0196998377
:100AD00088830E943710B7010E94800F01969B8384
:100AE0008A830E94371080FF22C081E090E09D87BA
:100AF0008C870E94371080FF17C081E090E09F87AD
:100B00008E870C5F1F4F2496F0E0C03ADF0721F676
:100B100081E080939300DF91CF911F910F91FF901F
:100B2000EF90DF90CF9008958FEF9FEFE8CF8FEF9A
:100B30009FEFDDCF0197806E9F6F0196BDCF0F9322
:100B40001F93CF93DF93EC01062F90919601943081
:100B500099F19830A9F0923031F0802FDF91CF9148
:100B60001F910F9108958981882381F10E94E006E9
:100B700010929300802FDF91CF911F910F910895D4
:100B800020919701309198012F3F3F4F49F180917B
:100B90009901102F8017C0F0811B809399011123B8
:100BA000E1F289910E944F071150D9F7802FDF9110
:100BB000CF911F910F91089589818ABD802FDF9178
:100BC000CF911F910F910895182FE6CF0E94E00654
:100BD0000E940505802FDF91CF911F910F910895FD
:100BE00089815A8140E0480F511D509398014093EC
:100BF00097018B8180939901249604509A01A3E96F
:100C0000B1E20E94740F929582958F7089279F7030
:100C10008927682F342F2AE7829F30191124832FC8
:100C20000E940107B4CFEF92FF920F931F93CF93CF
:100C3000DF9380919300882309F48FC06091AC000A
:100C40007091AD0077FD22C00091B2002091B000FC
:100C50004091AE008BEC97E00E94ED070091B6004A
:100C60002091B4004091B2006091B0008BEC97E00D
:100C70000E94ED070091AE002091AC004091B600BB
:100C80006091B4008BEC97E00E94ED0744E250E0E5
:100C900068EB70E08CEA90E00E94501000ED10E0EC
:100CA000C4E9D0E033E0E32EF12C2C853D8548816A
:100CB0005981249FC001259F900D349F900D1124D0
:100CC000F80140815181840F951F8A37910508F002
:100CD00059C0F801918380832E853F854A815B81CD
:100CE000249FC001259F900D349F900D1124F80181
:100CF00042815381840F951F80329105A8F5F80138
:100D0000938382830C5F1F4F2496F0E0C03ADF0785
:100D100061F60091D6002091D4004091D2006091FC
:100D2000D0008BEC97E00E94ED070091DA00209153
:100D3000D8004091D6006091D4008BEC97E00E94DF
:100D4000ED070091D2002091D0004091DA0060912F
:100D5000D8008BEC97E00E94ED07DF91CF911F91B7
:100D60000F91FF90EF9008953195219531093F87BC
:100D70002E870E943710B7010E94800F01969B8337
:100D80008A83C0CF3195219531093D872C870E94F8
:100D90003710B7010E94800F0196998388839CCFFA
:100DA000DF98DE9885BB60FF04C0DC9A000000007D
:100DB000DC9861FF04C0DB9A00000000DB98089516
:100DC0008FEF84BB8AB3896D8ABB0000D89A8FE30A
:100DD0009FE10197F1F700C00000D8988FE39FE1F1
:100DE0000197F1F700C00000D89A63E082EE0E94FC
:100DF000D00663E08FEA0E94D00663E080EC0C949A
:100E0000D0068093DD006093DC008D3350F062E00B
:100E10008D530E94D0068091DC0062E0886B0C94B8
:100E2000D00661E00E94D00662E080E00E94D00619
:100E30008091DC0063E0886B0C94D006CF93DF9A3E
:100E4000DE9A14BA8FEF85BB9091DD009D33D8F404
:100E5000DC9A00000000DC9800000000DC9A000032
:100E60000000C3B3DC988FEF84BB9F5F9093DD00DD
:100E70009A3730F06091DC006F5F80E00E940107DC
:100E80008C2FCF910895DB9A00000000DB980000C2
:100E90000000DB9A00000000C3B3DB98E4CFDF9AC8
:100EA000DE9885BB8091DD008D3350F4DC9A000024
:100EB0000000DC988F5F8093DD008A3750F408953E
:100EC000DB9A00000000DB988F5F8093DD008A379B
:100ED000B0F36091DC006F5F80E00C940107CF936A
:100EE000DF93D0E06D2F80E00E940107CAE780E029
:100EF0000E944F07C150D9F7DF5FD43099F760E007
:100F000080E0DF91CF910C9401070F931F93CF9353
:100F1000DF93D82FC62F162F169516951695612F8D
:100F20000E9401070E941E07082F612F8D2F0E942B
:100F30000107C77081E090E001C0880FCA95EAF709
:100F4000802BDF91CF911F910F910C944F070F933E
:100F50001F93CF93DF93D82FC62F162F1695169574
:100F60001695612F0E9401070E941E07082F612F0E
:100F70008D2F0E940107C77021E030E001C0220FD1
:100F8000CA95EAF7822F80958023DF91CF911F9138
:100F90000F910C944F070F931F93CF93DF93D82F8C
:100FA000C62F162F169516951695612F0E940107CC
:100FB0000E941E07082F612F8D2F0E940107C77006
:100FC00081E090E001C0880FCA95EAF78027DF91A1
:100FD000CF911F910F910C944F074F925F926F9298
:100FE0007F928F929F92AF92BF92CF92DF92EF92B9
:100FF000FF920F931F93CF93DF937C01562E442EC5
:10100000722EC22ED12CC61AD108E02FF0E0E41BBC
:10101000F1091C141D040CF06CC088248394912CDD
:101020001E161F060CF057C0AA24A394B12CD7FC9F
:1010300057C0F7FD5AC0CE16DF0684F18F01000FAE
:10104000111FE801CC19DD09CC0CDD1C751491F0E1
:10105000982C8818642D852DF7010995D7FD03C0BC
:101060004A0CCC19DD09C00FD11F590C882D850DF4
:101070007812F0CF642D852DF701DF91CF911F916C
:101080000F91FF90EF90DF90CF90BF90AF909F9027
:101090008F907F906F905F904F900994CC0CDD1CE7
:1010A000E601CE1BDF0B3F01660C771C041511F324
:1010B0001A2DAA18642D852DF7010995D7FD03C0B7
:1010C000580CC619D709CC0DDD1D410E8A2D840D93
:1010D0000813F0CFCFCFAA24AA94BA2CD7FEA9CF59
:1010E000D194C194D108F7FFA6CFF195E195F1090C
:1010F000A2CF88248A94982C93CFDF92EF92FF920C
:101100000F931F93CF93DF93C82F162FD42EE22E69
:10111000442389F0082F0150020FF42EF60ED62F2B
:101120006D2F8C2F0E9485076D2F802F0E948507C1
:10113000DF5FDF11F5CFEE2081F0D12FD150DD0D33
:101140000E2D0C0F612F8C2F0E9485076D2F8C2F79
:101150000E948507CF5FC013F5CFDF91CF911F911C
:101160000F91FF90EF90DF9008955F926F927F92C2
:101170008F929F92AF92BF92CF92DF92EF92FF92A7
:101180000F931F93CF93DF93582EA62E662E681AC7
:10119000042F10E0EE24FF24E01AF10AEE0CFF1CED
:1011A00083E0E80EF11CE6E0CE2ED12CC0E0D0E0CA
:1011B00014C09E01201B310B220F331F220F331F3F
:1011C000265F3F4FE20EF31E01501109219684E085
:1011D000C80ED11C0C171D07DCF1802E8A0C7C2E4A
:1011E000750C682D872D0E9485078A2D801B982EEF
:1011F000682F872D0E948507752C7C1A682D872DF6
:101200000E948507692D872D0E9485077A2C7C0E08
:101210008618672D882D0E9485078A2D8C1BB82E75
:10122000682F882D0E9485079618672D892D0E94AA
:1012300085076B2D892D0E948507F7FEBACFEC0C30
:10124000FD1C219684E0C80ED11C0C171D072CF63E
:10125000DF91CF911F910F91FF90EF90DF90CF9092
:10126000BF90AF909F908F907F906F905F90089508
:101270000F931F93CF93DF93805295E0899F800156
:101280001124E801CC56DE4F07561E4FFE01849113
:101290000E944F072196C017D107C1F780E0DF9168
:1012A000CF911F910F910C944F070F931F93CF93E2
:1012B000DF93882311F1C0E090E0EC2FF0E0EC58D0
:1012C000FC4FE491CE0F9F5F9813F7CFD0E0FE0163
:1012D000EC58FC4F0491002359F0CB58DC4F10E040
:1012E000FE0184910E944F071F5F21961013F8CFD3
:1012F000DF91CF911F910F910895E4E7F3E0C0E0F3
:10130000D0E0E8CFCF93DF93EC018881882331F0E0
:1013100021960E94380989918111FBCFDF91CF91ED
:1013200008959093DF008093DE000895CF93C82F37
:101330008A3039F0E091DE00F091DF008C2FCF9100
:101340000994E091DE00F091DF008DE00995E091D5
:10135000DE00F091DF008C2FCF9109941F93CF9383
:10136000DF930097C9F0FC0110811123A9F0EC0173
:10137000219609C0E091DE00F091DF00812F0995F0
:101380001991112349F01A30A9F7E091DE00F0918C
:10139000DF008DE00995EECFDF91CF911F91089589
:1013A000CF92DF92EF92FF920F931F93CF93DF9331
:1013B0001F92CDB7DEB77A01009781F1FC01680F6B
:1013C000791F6F01E617F70721F081916F018111F5
:1013D000F8CFE114F10411F100E010E010C0BFEF0C
:1013E000CB1ADB0A9A3021F1E091DE00F091DF00A8
:1013F000892F09950F5F1F4F0E151F0579F0D60134
:101400009C919111ECCFE091DE00F091DF0080E241
:1014100009950F5F1F4F0E151F0589F70F90DF917C
:10142000CF911F910F91FF90EF90DF90CF90089593
:10143000E091DE00F091DF008DE0998309959981BC
:10144000D3CF1F93CF93DF930097D9F0EC01219670
:10145000FC01149111110CC014C0E091DE00F09158
:10146000DF00812F0995FE0121961491112349F087
:101470001A3099F7E091DE00F091DF008DE00995D8
:10148000ECCFDF91CF911F910895E091DE00F091B4
:10149000DF008DE00995E091DE00F091DF008AE049
:1014A0000994CF938F70E82FF0E0E957FC4FC49177
:1014B000CA3039F0E091DE00F091DF008C2FCF913F
:1014C0000994E091DE00F091DF008DE00995E09154
:1014D000DE00F091DF008C2FCF910994CF93C82FBD
:1014E00082958F700E94510A8C2FCF910C94510AD3
:1014F000CF93C82F892F0E946E0A8C2FCF910C9406
:101500006E0ACF92DF92EF92FF926B017C01C701CE
:101510000E94780AC601FF90EF90DF90CF900C9464
:10152000780A2F923F924F925F926F927F928F92A2
:101530009F92AF92BF92CF92DF92EF92FF920F9362
:101540001F93CF93DF93CDB7DEB7A0970FB6F89474
:10155000DEBF0FBECDBF282E862EA22E442311F053
:1015600017FD8CC0C801B701B82C772473944111C2
:1015700001C0712C982C9A94971818A2332427FC38
:101580003094432C532CA20191010E94940FDC0152
:10159000CB018F709927AA27BB27FC01E957FC4F85
:1015A00064916F8FB901CA016E012EE1C20ED11C88
:1015B000692C15C0A20191010E94940FDC01CB019E
:1015C0008F709927AA27BB27FC01E957FC4F64912C
:1015D000F6016083B901CA01F1E0CF1AD1086A941B
:1015E0002FEF621641F0611571058105910511F724
:1015F000F601A082F1CF6E018FE1C80ED11CC9188F
:10160000D108772059F017FD41C0EF28E02AE12AE0
:1016100009F441C08BE2F60182936F01811009C089
:1016200014C0E091DE00F091DF00812F0995BA949B
:1016300061F0F60111916F011A3099F7E091DE0027
:10164000F091DF008DE00995ECCFA0960FB6F894ED
:10165000DEBF0FBECDBFDF91CF911F910F91FF90E5
:10166000EF90DF90CF90BF90AF909F908F907F9042
:101670006F905F904F903F902F9008956627772747
:10168000CB016E197F09800B910B6ECF8DE2F601B5
:1016900082936F01C3CF80E2F60182936F01BECFC8
:1016A00080538A3010F48FEF089580E00895FB0195
:1016B00020E030E0882331F0949190539A3030F05C
:1016C000C9010895908190539A30D0F7A901440F31
:1016D000551F220F331F220F331F220F331F420FBC
:1016E000531F882341F0249130E020533109240F07
:1016F000351F3196DFCF2081332727FD30952053CA
:101700003109F5CF2F923F924F925F926F927F9265
:101710008F929F92AF92BF92CF92DF92EF92FF9201
:101720000F931F93CF93DF9300D000D01F92CDB7BC
:10173000DEB76A8C1E012DE1220E311CCB8CDC8CB5
:101740001AE0812E912CA12CB12C210116016CC024
:10175000F1011491112309F436C1153209F029C1A0
:10176000F101319684918D3209F470C01A82198288
:10177000662009F473C08491803309F4BCC18E32B1
:1017800009F4B9C1B0E27B2E84918A3209F073C0AA
:10179000D201CD90DC901F01BFEF2B1A3B0AE2E093
:1017A0004E0E511C662009F46FC0F10184918E32F7
:1017B00009F46FC07EEFE72E7FE7F72E662009F46D
:1017C0007EC0F1018491833209F47EC020E030E0D4
:1017D000662009F480C0F10184918C3609F480C040
:1017E00040E050E0662009F482C0F1018491E82FC6
:1017F000F0E0EF36F10509F482C0E037F1050CF0B6
:10180000FCC0E336F10509F4FAC1E436F10509F448
:101810008CC1B59731F4E091DE00F091DF0085E2F4
:101820000995EFEF2E1A3E0A611092CFD1011C915B
:10183000112309F4C8C0153209F0BBC0F10131967B
:10184000D10111968C918D3209F090CFF101329631
:1018500041E050E05A83498361108DCF808180330D
:1018600009F444C18E3209F441C1A0E27A2E8A32D1
:1018700009F48ECF80811F0180538A3008F413C190
:10188000C12CD12C611091CFD1018C918E3209F0F5
:1018900091CF81010F5F1F4F662009F417C1F80136
:1018A00084918A3209F018C1F201E080F180F2E0FF
:1018B0002F0E311C22E0420E511C611082CFD1014B
:1018C0008C91833209F082CFBFEF2B1A3B0A21E0C3
:1018D00030E0611080CFD1018C918C3609F080CF3F
:1018E000BFEF2B1A3B0A41E050E061107ECFD101DF
:1018F0008C91E82FF0E0EF36F10509F07ECFD201B0
:10190000452B09F0BEC14D915C91BA0180E090E099
:1019100042E0440E511CE537F10509F4BDC1EF3634
:10192000F10509F416C2E837F10509F43CC200E0FC
:1019300010E080EEE82E80E0F82E0C0D1D1D498190
:101940005A81452BB1F4680151E0C51AD10810162F
:1019500011060CF060C2E091DE00F091DF00872DEF
:10196000099581E0C81AD108B0F701E010E00250F3
:101970001109C7010197805E904068F4BAC1E091F7
:10198000DE00F091DF00892F0995B0EEEB16B0E094
:10199000FB0609F4AEC1D7019E917D019A3079F71B
:1019A000E091DE00F091DF008DE09D8309959D813F
:1019B000E6CF1A3009F433C1E091DE00F091DF0088
:1019C000812F09952ECF80E090E00F900F900F901F
:1019D0000F900F90DF91CF911F910F91FF90EF909B
:1019E000DF90CF90BF90AF909F908F907F906F903F
:1019F0005F904F903F902F900895E537F10509F4DF
:101A00007ECFE837F10509F47ACFE337F10509F025
:101A100008CFF201B2E04B0E511C208131813C8392
:101A20002B83232B09F4B8C1AB81BC81FD0101904C
:101A30000020E9F73197EA1BFB0BCE1ADF0A8981F8
:101A40009A81892B09F406C1EB81FC81908199234D
:101A500009F455C01E141F040CF051C00B811C81E9
:101A60000F5F1F4F3FEFE31AF30A4B815C81E40ED7
:101A7000F51E0EC0E091DE00F091DF00892F099580
:101A8000D8019D918D019923D1F1AE15BF05B9F112
:101A90009A3081F7E091DE00F091DF008DE09D83C8
:101AA00009959D81E7CFBF01862D0E94570B6C01E0
:101AB000F101662049F0849180538A3010F01F01B3
:101AC00071CE31966110F7CF8081F6CFD10111969A
:101AD0008C918A3209F4E8CE80538A3008F4A6C08B
:101AE0001801EEEFEE2EEFE7FE2E68CE81813196E3
:101AF00070E3772EBCCE3196A0E37A2E45CE2981B5
:101B00003A81232B09F48DCE8601015011091C1452
:101B10001D040CF086CEE091DE00F091DF0080E243
:101B2000099501501109B8F77CCE452B09F0CBC0BF
:101B3000D2016D917C91882777FD8095982FE2E006
:101B40004E0E511C97FDC9C01C821B8200EE10E096
:101B5000A50194010E94B60F605DD8016D938D01BF
:101B60007D01B901CA01161617061806190684F375
:101B7000EB81FC81EF2B19F0EDE2ED937D0100EE9E
:101B800010E00E191F090C0D1D1D29813A81232B10
:101B9000B1F4680131E0C31AD108101611060CF037
:101BA0003EC1E091DE00F091DF00872D099541E014
:101BB000C41AD108B0F701E010E002501109C701C2
:101BC0000197805E904068F4ACC0E091DE00F09137
:101BD000DF00892F0995B0EEEB16B0E0FB0609F4A3
:101BE000A0C0D7019E917D019A3079F7E091DE0087
:101BF000F091DF008DE09D8309959D81E6CF820104
:101C00000E5F1F4FD2019C919A3009F4FBC0E09106
:101C1000DE00F091DF00892F0995280102CEE091C6
:101C2000DE00F091DF008DE00995C6CEB801862D6B
:101C30000E94570B7C01F801662031F0849180539B
:101C40008A3030F01F01BACD808180538A30D0F7BE
:101C50003196F2CF8601015011091C141D040CF0BD
:101C6000DCC0E091DE00F091DF00872D0995015086
:101C70001109B8F7CC24C394D12CA2E0CA1AD10818
:101C8000E3CE6D917D918D919C9144E0440E511C69
:101C9000E537F10509F043CE00EE10E0A50194010F
:101CA0000E94940F605DD8016D938D017D01B90193
:101CB000CA01611571058105910581F700EE10E0FB
:101CC0000E191F093ACEF2016081718182819381E0
:101CD00024E0420E511C97FF37CF90958095709568
:101CE00061957F4F8F4F9F4F21E030E03C832B83E6
:101CF0002DCFE981FA81EF2B09F493CD7801E1E052
:101D0000EE1AF108101611060CF08BCDE091DE00F2
:101D1000F091DF0080E20995F1E0EF1AF108B0F7E9
:101D200080CDE981FA81EF2B09F47BCD7801E1E0E8
:101D3000EE1AF108101611060CF073CDE091DE00DA
:101D4000F091DF0080E20995F1E0EF1AF108B0F7B9
:101D500068CDE0EEF0E0DC01CB01AC01BD014770E5
:101D6000552766277727405D41937F0163E0B6954D
:101D7000A795979587956A95D1F70097A105B10525
:101D800061F7232B09F49ACF20E321937F0100EE22
:101D900010E00E1B1F0BD1CDE5E0F0E046E650E071
:101DA0005C834B834ACE50EEE52E50E0F52EF701D2
:101DB000DC01CB010DC0405D419344E0B695A79591
:101DC000979587954A95D1F70097A105B10561F0E0
:101DD000AC01BD014F705527662777274A30510562
:101DE00054F3495A4193E9CF7F01232B09F466CF7D
:101DF000E8E7D701EC93F0E31196FC9322E0E20EC2
:101E0000F11C5CCFE091DE00F091DF008DE09D835E
:101E100009959D81FCCE8601ACCD680115CE860169
:101E2000CECE2EE088E190E00FB6F894A89581BD63
:101E30000FBE21BD82B38B7B82BB81B3846481BB27
:101E400080E49CE90197F1F781B38B7B81BB8C9A8D
:101E5000949887B3807F87BB88B38F6088BB85E009
:101E600083BF8D9A8FB589688FBD8EB581608EBD19
:101E700080E28ABD0E945B0380E090E00E946210D5
:101E80008131974471F0E2E9F1E0649180E090E003
:101E90000E946810E3E9F1E0649181E090E00E9423
:101EA00068100E94E00688E399E00E9491090E9470
:101EB0006F070E94050578940E941306A8950E945A
:101EC0000E0286B380958F7090919A01982B909313
:101ED0009A018091000090910100892B69F386B3EB
:101EE0008F708A3049F7FFCFA29FB001B39FC00126
:101EF000A39F01D0B29F700D811D1124911D0895E3
:101F000097FB072E16F4009407D077FD09D00E94A6
:101F1000D20F07FC05D03EF4909581959F4F089510
:101F2000709561957F4F0895A1E21A2EAA1BBB1BE5
:101F3000FD010DC0AA1FBB1FEE1FFF1FA217B30795
:101F4000E407F50720F0A21BB30BE40BF50B661FAB
:101F5000771F881F991F1A9469F76095709580956F
:101F600090959B01AC01BD01CF010895052E97FB13
:101F700016F4009407D057FD0DD00E94940F07FC73
:101F800009D07EF490958095709561957F4F8F4F25
:101F90009F4F089550954095309521953F4F4F4F55
:101FA0005F4F0895AA1BBB1B51E107C0AA1FBB1FAF
:101FB000A617B70710F0A61BB70B881F991F5A95D5
:101FC000A9F780959095BC01CD0108958F929F92BD
:101FD000AF92BF92CF92DF92EF92FF92CF93DF93B7
:101FE000EC01688179818A819B8161157105810588
:101FF000910521F464E279ED8BE597E02DE133EF73
:1020000041E050E00E94B60F49015A019B01AC012A
:10201000A7EAB1E40E948E106B017C01ACEEB4EF34
:10202000A50194010E949C10C60ED71EE81EF91E41
:10203000F7FE06C081E0C81AD108E10880E8F80A76
:10204000C882D982EA82FB82E894D7F8EE24FF2482
:10205000C601DF91CF91FF90EF90DF90CF90BF90BE
:10206000AF909F908F9008950E94E60F089582E6AA
:1020700090E00E94E60F0895A0E0B0E08093620037
:1020800090936300A0936400B09365000895FB01F2
:10209000DC0102C005900D9241505040D8F70895E0
:1020A0006817790768F4FB01DC01E40FF51FA40F42
:1020B000B51F02C002900E9241505040D8F70895CB
:1020C0000C947510A8E1B0E042E050E00C94801050
:1020D000262FE199FECF9FBB8EBB2DBB0FB6F89488
:1020E000E29AE19A0FBE01960895FB01DC0102C05D
:1020F00001900D9241505040D8F70895DC01CB017A
:10210000FC01E199FECF06C0FFBBEEBBE09A319621
:102110000DB20D9241505040B8F708950E94740FCF
:10212000A59F900DB49F900DA49F800D911D11242B
:102130000895B7FF0C948E100E948E10821B930B93
:062140000895F894FFCFA2
:0C2146005AFF01000000286E696C29009F
:00000001FF
